:1010AB00E4FF12098120A0050412095F0F20A11093
:1010BB00740212095FEF70047E0280027E00AF069D
:0110CB002202
:10000E00E4FF20A0010F20A10BEF70047E028002FE
:04001E007E00AF06AB
:0100220022BB
:101227003F065B4F666D7D077F6F777C395E79710F
:0712370080004001020408E1
:100E5E000C2C173717381738173A1739173A074C1B
:100E6E0000000C0D080610015700C10202540000CC
:100E7E0001560002480000014A000123000124002F
:0F0E8E0002270000C10002290000012B00C181D2
:1011DA0012136112110EE557600964016005E557A3
:0B11EA00B402031212CA12000380EBD3
:10110E007F40121016120D0A1212BA121294120FFA
:0F111E00C2120003D202754BB875530A02125564
:0F12BA007F007E2012120FEF64AA60031210CC87
:0112C9002202
:06136100855690D2B72270
:10125500D2AFD2A95389F0438901854B8C85538A36
:05126500C28DD28C22B5
:10129400E4FF121169EF30E7097B007A00794C1200
:0212A4001376BF
:0112A6002225
:03000B00020D657E
:100D6500C0E0C0F0C083C082C0D075D000C000C054
:0D0D750001C002C003C004C005C006C007D5
:100D8200854B8C85538A12000E8F227B007A007964
:100D920022120A730521E521B41406752100120FEF
:010DA200C28E
:100DA300D007D006D005D004D003D002D001D000A4
:0B0DB300D0D0D082D083D0F0D0E0324E
:100FC200E557600964016005E557B4021C7B007AAD
:100FD20000794C121373E54EB55406E54D65556024
:0A0FE20008D202854E54854D5522B9
:08000300120026D206020F09CB
:1012CA0030020C7B007A00794C12084F1213672205
:06136700855690B2B7228A
:1009CB00E4F51B900002120932FFE51B25E025E040
:1009DB00242CF8E6FEEFC39E5010E51B25E025E026
:1009EB00242EF8E6FEEFD39E5071900002120932CE
:1009FB0075F03CA4FF9000011209327C002FFFEC34
:100A0B0035F08F82F583E51B25E025E0242CF8E6F5
:100A1B0075F03CA4FFAEF0E51B25E025E0242DF896
:100A2B00E62FF51DEC3EF51CE51B25E025E0242EFD
:100A3B00F8E675F03CA4FFE51B25E025E0242FF834
:100A4B00E62FFFEC35F0FEC3E582951DE583951C83
:100A5B004009E5829FE5839E500122051BE51B643F
:070A6B000360030209CEC382
:010A72002261
:10084F00E4F513900002120932FFE51325E025E0CD
:10085F00242CF8E6FEEFC39E5013E51325E025E0A8
:10086F00242EF8E6FEEFD39E400302090D900002FE
:10087F0012093275F03CA4FF9000011209327C007E
:10088F002FFFEC35F08F82F583E51325E025E0246B
:10089F002CF8E675F03CA4FFAEF0E51325E025E05B
:1008AF00242DF8E62FF515EC3EF514E51325E0257C
:1008BF00E0242EF8E675F03CA4FFE51325E025E0D3
:1008CF00242FF8E62FFFEC35F0FEC3E5829515E5F2
:1008DF008395144019E5829FE5839E5011AF1374E1
:1008EF0001A807088002C333D8FC42568010AF130B
:1008FF007401A807088002C333D8FCF452560513BD
:09090F00E51364036003020852C1
:0109180022BC
:100A7300E4F525F526E52314601514602824FE60AB
:100A83005824046003020B08120919607880591274
:100A93000919FF7004F523806C752302E4F548F50A
:100AA300498F248060120919FF700AF523852425D4
:100AB3007526018050EF65246002802C0549E549C5
:100AC3007002054864964548703BF548F54975231F
:100AD30004852425752602802C120919FF7004F55C
:100AE300238022EF6524600575230180180549E5FD
:100AF300497002054864144548700AF548F549856C
:0E0B030024257526037B007A0079250204A7BD
:0604A7008B088A09890A96
:1004AD00120919FF701DE557601E0528E528700219
:1004BD000527C394DCE5279405400DE4F527F528C1
:1004CD00F55722E4F527F528E557B40C0040030253
:1004DD00084E9004E6F828287302050A0205440226
:1004ED0005850205C902061702065E0206C402074B
:1004FD000C02084E0207690207B20207FFEFB402B1
:10050D0013AB08AA09A90A900001120932B401041B
:10051D0075570122AB08AA09A90A120919640160CD
:10052D000302084E900001120932640260030208B2
:10053D004E755704C20022AB08AA09A90A1209195F
:10054D00FFB40219900001120932FEB4010475576F
:10055D000222EE6402600302084EF55722EF640199
:10056D00600302084E90000112093264026003021A
:10057D00084E755706C20022AB08AA09A90A12092E
:10058D0019FFB4021C900001120932FEB401077567
:10059D005703E4F54A22EE6402600302084EF55754
:1005AD0022EF6401600302084E90000112093264CB
:1005BD0002600302084E755709C20022AB08AA0952
:1005CD00A90A120919FF640270259000011209325F
:1005DD00FEB40110054AE54A6406600302084EF5B3
:1005ED0057F54A22EE6402600302084EF55722EFDA
:1005FD006401600302084E9000011209326402602A
:10060D000302084E75570AC20022AB08AA09A90AAF
:10061D00120919FFB40212D200054DE54DC3943CE9
:10062D00500302084EE4F54D22EF64016003020809
:10063D004E900001120932FFB4010475570522EFE7
:10064D006402600302084EF55720000302084E8035
:10065D0039AB08AA09A90A120919FFB40212D2006E
:10066D00054EE54EC39418500302084EE4F54E2294
:10067D00EF6401600302084E90000112093264021A
:10068D00701EF55720000302084EFDFF1211F5AD47
:10069D004D7F011211F5AD4E7F021211F502084A80
:1006AD00AB08AA09A90A900001120932640160037E
:1006BD0002084E75570422AB08AA09A90A12091996
:1006CD00FFB40212D200054FE54FC3941F50030231
:1006DD00084E754F0122EF6401600302084E900031
:1006ED0001120932FFB4010475570722EF6402604D
:1006FD000302084E75570120000302084E8039ABE6
:10070D0008AA09A90A120919FFB40212D20005504C
:10071D00E550C3940D500302084E75500122EF644D
:10072D0001600302084E900001120932B4021675E1
:10073D00570120000302084EAD4F7F031211F5AD96
:10074D00507F04805AAB08AA09A90A90000112092A
:10075D00326401600302084E75570622AB08AA09E0
:10076D00A90A120919FFB40212D2000552E552C3AB
:10077D009464500302084EE4F55222EF64016003C5
:10078D0002084E9000011209326402600302084E05
:10079D00755702F54A20000302084EAD527F06122E
:1007AD0011F5C20022AB08AA09A90A120919FF64A2
:1007BD0002701FD200E54A25E0242DF806E54A25F2
:1007CD00E0242DF8E6C3943C4077E54A25E0242D3E
:1007DD00804BEF6401706A900001120932FFB40181
:1007ED000475570B22EF640270577557031210CC26
:1007FD00804BAB08AA09A90A120919FF64027021DE
:10080D00D200E54A25E0242CF806E54A25E0242C03
:10081D00F8E6C39418402AE54A25E0242CF8E4F6BE
:10082D0022EFB4011C900001120932FFB4010475CE
:10083D00570A22EFB4020A7557031210CCC200D228
:01084D0002A8
:01084E002287
:10002600E557B40C00400302048C900037F82828EA
:100036007302005B0200BD0200FE0201180201917C
:100046000201F602025C0202B802048C02031D02DF
:10005600035D0203F5E54D75F00A84E5F09012277D
:1000660093FFE54C30E0059012378003901238E498
:1000760093FEEF4EF544E54D75F00A8490122793F2
:10008600FFE54C30E0059012378003901238E49378
:10009600FEEF4EF545E54E75F00A84E5F090122721
:1000A60093F546E54E75F00A84F52B70057F11022F
:1000B60003EBAF2B0203EBE54F75F00A84E5F090F6
:1000C600122793FF901237E493FEEF4EF544E54F67
:1000D60075F00A8490122793F545E55075F00A8469
:1000E600E5F093F546E55075F00A84F52B70047F2C
:1000F600118002AF2B0203EBE55275F00A84E5F09E
:1001060090122793F544E55275F00A8493F545025B
:100116000352E54A25E0242DF8E675F00A84E5F059
:1001260090122793FFE54A30E0059012378003903E
:100136001238E493FEEF4EF544E54A25E0242DF807
:10014600E675F00A8490122793FFE54A30E00590A1
:1001560012388003901237E493FEEF4EF545E54AD8
:1001660025E0242CF8E675F00A84E5F09012279332
:10017600F546E54A25E0242CF8E675F00A84F52BC9
:1001860070047F118002AF2B0203EB30010890123E
:1001960038E493FF8016E54D75F00A84E5F0901279
:1001A6002793FF901237E493FEEF4EFF8F44300102
:1001B60008901238E493FF8014E54D75F00A849098
:1001C600122793FF901237E493FEEF4EFF8F45E51B
:1001D6004E75F00A84E5F090122793F546E54E75C4
:1001E600F00A84F52B70047F118002AF2B0203EB1B
:1001F600E54D75F00A84E5F090122793FF901237CB
:10020600E493FEEF4EF544E54D75F00A849012270F
:10021600934EF545300108901238E493FF800DE5C2
:100226004E75F00A84E5F090122793FF8F46E54E4F
:1002360075F00A84F52B300108901238E493FF809C
:1002460010E52B70047F118002AF2BEF90122793DD
:10025600FF8F4702048C300108901238E493FF8028
:1002660016E54F75F00A84E5F090122793FF901279
:1002760037E493FEEF4EFF8F44300108901238E4C6
:1002860093FF800BE54F75F00A8490122793FF8F3A
:1002960045E55075F00A84E5F090122793F546E59A
:1002A6005075F00A84F52B70047F118002AF2B0283
:1002B60003EBE54F75F00A84E5F090122793FF9063
:1002C6001237E493FEEF4EF544E54F75F00A84903D
:1002D600122793F545300108901238E493FF800DFC
:1002E600E55075F00A84E5F090122793FF8F46E5F6
:1002F6005075F00A84F52B300108901238E493FF0C
:100306008010E52B70047F118002AF2BEF9012272F
:1003160093FF8F4702048C300108901238E493FF54
:10032600800DE55275F00A84E5F090122793FF8F51
:1003360044300108901238E493FF800BE55275F0C3
:100346000A8490122793FF8F45901227E493F5466F
:10035600901229E40203EF300108901238E493FF6B
:100366008026E54A25E0242DF8E675F00A84E5F0B6
:1003760090122793FFE54A30E005901237800390EC
:100386001238E493FEEF4EFF8F4430010890123886
:10039600E493FF8024E54A25E0242DF8E675F00A6B
:1003A6008490122793FFE54A30E0059012388003C7
:1003B600901237E493FEEF4EFF8F45E54A25E02481
:1003C6002CF8E675F00A84E5F090122793F546E5D9
:1003D6004A25E0242CF8E675F00A84F52B70047F94
:1003E600118002AF2BEF90122793F54702048CE59C
:1003F6004A25E0242DF8E675F00A84E5F0901227E8
:1004060093FFE54A30E0059012378003901238E4F6
:1004160093FEEF4EF544E54A25E0242DF8E675F007
:100426000A8490122793FFE54A30E005901238803F
:1004360003901237E493FEEF4EF545300108901213
:1004460038E493FF8013E54A25E0242CF8E675F09E
:100456000A84E5F090122793FF8F46E54A25E024AB
:100466002CF8E675F00A84F52B300108901238E472
:1004760093FF8010E52B70047F118002AF2BEF9065
:10048600122793FF8F47052AE52A7002052964641F
:100496004529700CF529F52A300103C20122D20143
:0104A6002233
:1010CC007F007E2012127F7DAA7F007E2012136D7E
:1010DC007B007A00792C7D0C7C007F017E20020B3A
:0110EC0011F2
:07134100007E03DEFEDFF970
:011348002282
:0A130E007E027DF0DDFEDEFCDFF65E
:0113180022B2
:0A1319007E147D72DDFEDEFCDFF6BF
:0113230022A7
:0F12DA00007E087D9A7C7BDCFEDDFCDEFADFF116
:0112E90022E2
:09132F0080828486888A8C8E90ED
:10112D00120919FF75F00A8475F00A84AEF0EEC449
:0E113D0054F0FEEF75F00A84E5F04E020981D1
:1012A700120919FFC4540F75F00AA4FEEF540F2E4C
:0312B700020981A8
:0C12EA00C2B400C2B500C2B600D2B522EA
:0C12F600C2B5C2B4000000D2B4D2B622CF
:060ED7008B178A1889192F
:100EDD00E4FFC2B600AB17AA18A919120919C3135A
:100EED0012098130B40EAB17AA18A91912091944A9
:0B0EFD0080120981D2B6000FBF08D799
:010F080022C6
:09114B008D82758300120932FF48
:10115400E4FEC2B600EF1392B4EFC313FFD2B6009D
:041164000EBE08EEC5
:011168002264
:101065008F0C8D0DD2061211861212EAE50C901323
:101075002F93FF121154AF0D1211541212F6C2061E
:03108500021186CF
:020F6B008F15E0
:100F6D00E4F516D2061211861212EAE51590132F2A
:100F7D009304FF1211547B007A007916120ED712CA
:090F8D0012F6C206121186AF161D
:010F96002238
:021169008F13E2
:10116B00E4F514120F6B8F14E513D3940650097B1F
:0A117B00007A0079141212A7AF14D5
:011185002247
:1011F5008D0BAC07ECD3940650097B007A00790B74
:0A12050012112DAF04AD0B021065AD
:03137300020CACBD
:03137600020E9EC6
:060E9E008B138A14891574
:100EA400D2061211861212EA7FBE121154E4FDAB6F
:100EB40013ED7E002515F9EE3514FA12112DAB133E
:100EC400AA14A91512114B0DBD07E47F8012115409
:030ED4000212F611
:060CAC008B138A14891568
:100CB200D2061211861212EA7FBF121154E4F516FF
:100CC200AB137E00E5152516F9EE3514FA120ED790
:100CD200AB137E00E5152516F9EE3514FA1212A7AC
:100CE2000516E516C3940740D77B007A00791612E1
:100CF2000ED71212F6AB13AA14A915120919547FB2
:080D0200120981C206021186EC
:020F97008F1EAB
:100F9900E4F51FD2061211861212EAE51E25E02495
:100FA900C1FF1211547B007A00791F120ED7121259
:080FB900F6C206121186AF1FFB
:010FC100220D
:101088008F788D79D2061211861212EAE57825E05A
:1010980024C0FF121154AF791211541212F6C2066D
:0310A800021186AC
:060F3B008B6F8A708971C2
:100F4100D2061211861212EA7FFF121154E4FDAB90
:100F51006FED7E002571F9EE3570FA120ED70DBDD9
:0A0F61001FED1212F6C206021186FF
:060FEC008B728A73897408
:100FF200D2061211861212EA7FFE121154E4FDABE0
:1010020072AA73A97412114B0DBD1FF31212F6C20C
:04101200060211863B
:101186001212EA00901336E493FF1211543006044B
:0C1196007F0080027F801211540212F6CC
:10123E00E4FD30030DA204330425E025E044A0456F
:07124E007AFD7F080211F593
:07134900E4FF121169EF330C
:01135000227A
:1011A200E4FF120F6BAD07A207E433C433333354A9
:0C11B20080FFED547F4FFDE4FF0210654C
:030F090030062C83
:100F0C00E4F515E51590123A93F51374442515F88C
:100F1C00E6F4F5147B007A0079137D02120E12129E
:0C0F2C0013240515E515C3940440D822D9
:030F3800D283223F
:021016008F1336
:10101800E4F516E51690123A93F514E513F4F51570
:101028007B007A0079147D02120E12121324051621
:07103800E516C3940440DC3F
:01103F00228E
:060E12008B178A188919F4
:100E1800EDD39400403FE4F51AED7E0024FFF582FF
:100E2800EE34FFF583AB17AA18A9191209323392C9
:100E380082ED24FFFFEE34FFFEE92FF9EA3EFA12B5
:100E4800091925E0120981D280C280051AE51AB471
:050E580008C71D80BB6E
:010E5D002272
:0B132400D283C281D281C281C2832229
:081359001234567890ABCDEF81
:100D0A00E4F558F51374592513F8E4F60513E513B9
:100D1A00B410F2C2AF53890F438920759850758D6C
:100D2A00F4858D8B438780D28ED29CD2AFE4F513A3
:100D3A00900000AF82AE83E4FCFD7B407A9CF9F818
:100D4A00D31209B5400B309805C29875E760A380A5
:0A0D5A00E20513E513B408D8D2AC8B
:010D6400226C
:10126A00E4FFE4FE7D0AAC051DEC70FA0EBEC8F47C
:04127A000FBFC8EEEC
:01127E00224D
:081351008F993099FDC2992229
:101040008B758A768977AB75AA76A97712091960AC
:10105000130577E5777002057614F9120919FF1266
:05106000135180E222A3
:03002300020C3A92
:100C3A00C0E0C083C082C0D075D000C000C003C06D
:070C4A0004C005C006C0074D
:100C510030983EC29874592558F8A699AB58E55872
:100C6100B4100575580080020558E5129013599388
:100C7100FF74592BF8E6B50718EB70047B0F800160
:100C81001BE512700812126A75E76080DD1512808B
:060C9100D9309902C2995E
:100C9700D007D006D005D004D003D000D0D0D08262
:050CA700D083D0E03213
:0C130200C2AF53E71843E70143E7802225
:0913380053E77FE4F5E6D2AF2291
:1011BE00AB07AA068AE3EBF5E453E5F843E5028DA7
:0111CE00E23E
:0B11CF0012130275E64675E6B9002217
:10120F00AD07AC068CE3EDF5E453E5F843E50112C9
:08121F0011CF121338AFE222D7
:10127F00EE54FEFEF5E3E4F5E453E5F843E503121F
:05128F0011CF0213382D
:06136D001211BE0213384C
:1010ED001211BEE4F5E253E5F843E50175E64675E8
:1010FD00E6B900121338E5E2B505037F00227F0142
:01110D0022BF
:0A0B11008C138D148B158A168917BA
:100B1B00D3E5149400E513940240037F0122EE54B5
:100B2B0001F5188F19E5192514FDE5183513FCD3BC
:100B3B00ED9400EC940240037F01228E188F191262
:100B4B001302E4FDFCC3ED9514EC9513504FE5181F
:100B5B00F5E3E519F5E4AB15AA16A9178D828C837D
:100B6B00120932FFF5E253E5F843E50275E64675E7
:100B7B00E6B900E4F5E253E5F843E50175E64675A1
:100B8B00E6B900E5E26F60061213387F0122051902
:100B9B00E519700205180DBD00010C80A812133861
:020BAB007F00C9
:010BAD002225
:080DBE008D698B6A8A6B896C58
:100DC6008E6D8F6E121302E4FDFCC3ED9569EC94F3
:100DD600005036E56DF5E3E56EF5E453E5F843E5D9
:100DE60001E4F5E275E64675E6B900AB6AAA6BA9B9
:100DF6006C8D828C83E5E2120993056EE56E7002B6
:0C0E0600056D0DBD00010C80C102133809
:03000000020BAE42
:0C0BAE00787FE4F6D8FD75817A020BF523
:10091900BB010689828A83E0225002E722BBFE02DC
:09092900E32289828A83E493220F
:10093200BB010CE58229F582E5833AF583E022507A
:1009420006E92582F8E622BBFE06E92582F8E222C4
:0D095200E58229F582E5833AF583E49322DE
:10095F00BB010989828A83F8E028F022500327F728
:10096F0022BBFE05F8E328F3228A838982F8E493F9
:02097F0028222C
:10098100BB010689828A83F0225002F722BBFE0155
:02099100F3224F
:10099300F8BB010DE58229F582E5833AF583E8F09A
:1009A300225006E92582C8F622BBFE05E92582C846
:0209B300F2222E
:1009B500EB9FF5F0EA9E42F0E99D42F0EC6480C8B9
:0609C50064809845F02259
:100BBA000211DAE493A3F8E493A34003F68001F266
:100BCA0008DFF48029E493A3F85407240CC8C3333C
:100BDA00C4540F4420C8834004F456800146F6DF0B
:100BEA00E4800B0102040810204080900E5EE47E2F
:100BFA00019360BCA3FF543F30E509541FFEE49300
:100C0A00A360010ECF54C025E060A840B8E493A3C6
:100C1A00FAE493A3F8E493A3C8C582C8CAC583CAF1
:100C2A00F0A3C8C582C8CAC583CADFE9DEE780BEA9
:010E9D000054
:00000001FF
