:1010C200E4FF12098120A0050412095F0F20A1107C
:1010D200740212095FEF70047E0280027E00AF0686
:0110E20022EB
:10000E00E4FF20A0010F20A10BEF70047E028002FE
:04001E007E00AF06AB
:0100220022BB
:10125C003F065B4F666D7D077F6F777C395E7971DA
:07126C0080004001020408AC
:100DBE0020202D000A000B00080009000A000D007B
:100DCE000000000000000000000000000000000015
:100DDE00000000075500000C0D080610016000C150
:100DEE0003C102015F0002510000015300025D00C9
:100DFE000001240001250002280000C100022A0083
:060E0E0000012C00C1816F
:10120F00121398121125E560600964016005E5600D
:0B121F00B402031212EF12000380EB78
:101125007F4012102D120D0A1211441212C9120F0E
:0F113500D9120003D2037554B8755C0A02128AEE
:101144007F007E20121244EF64AA60031210E37B36
:0E115400007A00792D7D207F017E20020E158D
:06139800855F90D2B72230
:10128A00D2AFD2A95389F043890185548C855C8AEF
:05129A00C28DD28C2280
:1012C900E4FF12119EEF30E7097B007A007955128D
:0212D90013A759
:0112DB0022F0
:03000B00020D657E
:100D6500C0E0C0F0C083C082C0D075D000C000C054
:0D0D750001C002C003C004C005C006C007D5
:100D820085548C855C8A12000E8F237B007A007951
:100D920023120A730522E522B41406752200120FEB
:010DA200D977
:100DA300D007D006D005D004D003D002D001D000A4
:0B0DB300D0D0D082D083D0F0D0E0324E
:100FD900E560600964016005E560B4021C7B007A84
:100FE9000079551213A4E557B55D06E556655E60AF
:0A0FF90008D20385575D85565E227D
:08000300120026D207020F20B3
:1012EF0030030EC2037B007A00795512084F121398
:0212FF000122CA
:10130100300203855F90300203C38001D392B7227C
:1009CB00E4F51B900002120932FFE51B25E025E040
:1009DB00242DF8E6FEEFC39E5010E51B25E025E025
:1009EB00242FF8E6FEEFD39E5071900002120932CD
:1009FB0075F03CA4FF9000011209327C002FFFEC34
:100A0B0035F08F82F583E51B25E025E0242DF8E6F4
:100A1B0075F03CA4FFAEF0E51B25E025E0242EF895
:100A2B00E62FF51DEC3EF51CE51B25E025E0242FFC
:100A3B00F8E675F03CA4FFE51B25E025E02430F833
:100A4B00E62FFFEC35F0FEC3E582951DE583951C83
:100A5B004009E5829FE5839E500122051BE51B643F
:070A6B000860030209CEC37D
:010A72002261
:10084F00E4F513900002120932FFE51325E025E0CD
:10085F00242DF8E6FEEFC39E5013E51325E025E0A7
:10086F00242FF8E6FEEFD39E400302090D900002FD
:10087F0012093275F03CA4FF9000011209327C007E
:10088F002FFFEC35F08F82F583E51325E025E0246B
:10089F002DF8E675F03CA4FFAEF0E51325E025E05A
:1008AF00242EF8E62FF515EC3EF514E51325E0257B
:1008BF00E0242FF8E675F03CA4FFE51325E025E0D2
:1008CF002430F8E62FFFEC35F0FEC3E5829515E5F1
:1008DF008395144019E5829FE5839E5011AF1374E1
:1008EF0001A807088002C333D8FC425F8010AF1302
:1008FF007401A807088002C333D8FCF4525F0513B4
:09090F00E51364086003020852BC
:0109180022BC
:100A7300E4F526F527E52414601514602824FE60A8
:100A83005824046003020B08120919607880591274
:100A93000919FF7004F524806C752402E4F551F5FF
:100AA300528F258060120919FF700AF524852526C7
:100AB3007527018050EF65256002802C0552E552B1
:100AC3007002055164964551703BF551F5527524FA
:100AD30004852526752702802C120919FF7004F559
:100AE300248022EF6525600575240180180552E5F1
:100AF300527002055164144551700AF551F552853F
:0E0B030025267527037B007A0079260204A7B9
:0604A7008B088A09890A96
:1004AD00120919FF701DE560601E0529E52970020E
:1004BD000528C394DCE5289405400DE4F528F529BD
:1004CD00F56022E4F528F529E560B40C004003023F
:1004DD00084E9004E6F828287302050A0205440226
:1004ED0005850205C902061702065E0206C402074B
:1004FD000C02084E0207690207B20207FFEFB402B1
:10050D0013AB08AA09A90A900001120932B401041B
:10051D0075600122AB08AA09A90A120919640160C4
:10052D000302084E900001120932640260030208B2
:10053D004E756004C20022AB08AA09A90A12091956
:10054D00FFB40219900001120932FEB40104756066
:10055D000222EE6402600302084EF56022EF640190
:10056D00600302084E90000112093264026003021A
:10057D00084E756006C20022AB08AA09A90A120925
:10058D0019FFB4021C900001120932FEB401077567
:10059D006003E4F55322EE6402600302084EF56039
:1005AD0022EF6401600302084E90000112093264CB
:1005BD0002600302084E756009C20022AB08AA0949
:1005CD00A90A120919FF640270259000011209325F
:1005DD00FEB401100553E5536410600302084EF597
:1005ED0060F55322EE6402600302084EF56022EFBF
:1005FD006401600302084E9000011209326402602A
:10060D000302084E75600AC20022AB08AA09A90AA6
:10061D00120919FFB40212D2000556E556C3943CD7
:10062D00500302084EE4F55622EF64016003020800
:10063D004E900001120932FFB4010475600522EFDE
:10064D006402600302084EF56020000302084E802C
:10065D0039AB08AA09A90A120919FFB40212D2006E
:10066D000557E557C39418500302084EE4F5572279
:10067D00EF6401600302084E90000112093264021A
:10068D00701EF56020000302084EFDFF12122AAD08
:10069D00567F0112122AAD577F0212122A02084A02
:1006AD00AB08AA09A90A900001120932640160037E
:1006BD0002084E75600422AB08AA09A90A1209198D
:1006CD00FFB40212D2000558E558C3941F5003021F
:1006DD00084E75580122EF6401600302084E900028
:1006ED0001120932FFB4010475600722EF64026044
:1006FD000302084E75600120000302084E8039ABDD
:10070D0008AA09A90A120919FFB40212D200055943
:10071D00E559C3940D500302084E75590122EF643B
:10072D0001600302084E900001120932B4021675E1
:10073D00600120000302084EAD587F0312122AAD4E
:10074D00597F04805AAB08AA09A90A900001120921
:10075D00326401600302084E75600622AB08AA09D7
:10076D00A90A120919FFB40212D200055BE55BC399
:10077D009464500302084EE4F55B22EF64016003BC
:10078D0002084E9000011209326402600302084E05
:10079D00756002F55320000302084EAD5B7F061213
:1007AD00122AC20022AB08AA09A90A120919FF646C
:1007BD0002701FD200E55325E0242EF806E55325DF
:1007CD00E0242EF8E6C3943C4077E55325E0242E33
:1007DD00804BEF6401706A900001120932FFB40181
:1007ED000475600B22EF640270577560031210E3FD
:1007FD00804BAB08AA09A90A120919FF64027021DE
:10080D00D200E55325E0242DF806E55325E0242DEF
:10081D00F8E6C39418402AE55325E0242DF8E4F6B4
:10082D0022EFB4011C900001120932FFB4010475CE
:10083D00600A22EFB4020A7560031210E3C200D2FF
:01084D0003A7
:01084E002287
:10002600E560B40C00400302048C900037F82828E1
:100036007302005B0200BD0200FE0201180201917C
:100046000201F602025C0202B802048C02031D02DF
:10005600035D0203F5E55675F00A84E5F090125C3F
:1000660093FFE55530E00590126C800390126DE425
:1000760093FEEF4EF54DE55675F00A8490125C93AB
:10008600FFE55530E00590126C800390126DE49305
:10009600FEEF4EF54EE55775F00A84E5F090125CDA
:1000A60093F54FE55775F00A84F52C70057F11021C
:1000B60003EBAF2C0203EBE55875F00A84E5F090EC
:1000C600125C93FF90126CE493FEEF4EF54DE558EB
:1000D60075F00A8490125C93F54EE55975F00A8422
:1000E600E5F093F54FE55975F00A84F52C70047F19
:1000F600118002AF2C0203EBE55B75F00A84E5F094
:1001060090125C93F54DE55B75F00A8493F54E020B
:100116000352E55325E0242EF8E675F00A84E5F04F
:1001260090125C93FFE55330E00590126C800390CB
:10013600126DE493FEEF4EF54DE55325E0242EF8BF
:10014600E675F00A8490125C93FFE55330E0059063
:10015600126D800390126CE493FEEF4EF54EE5535C
:1001660025E0242DF8E675F00A84E5F090125C93FC
:10017600F54FE55325E0242DF8E675F00A84F52CB5
:1001860070047F118002AF2C0203EB30010890123D
:100196006DE493FF8016E55675F00A84E5F090123B
:1001A6005C93FF90126CE493FEEF4EFF8F4D30018F
:1001B6000890126DE493FF8014E55675F00A84905A
:1001C600125C93FF90126CE493FEEF4EFF8F4EE5A8
:1001D6005775F00A84E5F090125C93F54FE5577574
:1001E600F00A84F52C70047F118002AF2C0203EB19
:1001F600E55675F00A84E5F090125C93FF90126C58
:10020600E493FEEF4EF54DE55675F00A8490125CC8
:10021600934EF54E30010890126DE493FF800DE584
:100226005775F00A84E5F090125C93FF8F4FE557FF
:1002360075F00A84F52C30010890126DE493FF8066
:1002460010E52C70047F118002AF2CEF90125C93A6
:10025600FF8F5002048C30010890126DE493FF80EA
:1002660016E55875F00A84E5F090125C93FF90123B
:100276006CE493FEEF4EFF8F4D30010890126DE453
:1002860093FF800BE55875F00A8490125C93FF8FFC
:100296004EE55975F00A84E5F090125C93F54FE54A
:1002A6005975F00A84F52C70047F118002AF2C0278
:1002B60003EBE55875F00A84E5F090125C93FF9025
:1002C600126CE493FEEF4EF54DE55875F00A8490F6
:1002D600125C93F54E30010890126DE493FF800D89
:1002E600E55975F00A84E5F090125C93FF8F4FE5AF
:1002F6005975F00A84F52C30010890126DE493FFCD
:100306008010E52C70047F118002AF2CEF90125CF8
:1003160093FF8F5002048C30010890126DE493FF16
:10032600800DE55B75F00A84E5F090125C93FF8F13
:100336004D30010890126DE493FF800BE55B75F07C
:100346000A8490125C93FF8F4E90125CE493F54FF3
:1003560090125EE40203EF30010890126DE493FF01
:100366008026E55325E0242EF8E675F00A84E5F0AC
:1003760090125C93FFE55330E00590126C80039079
:10038600126DE493FEEF4EFF8F4D30010890126D13
:10039600E493FF8024E55325E0242EF8E675F00A61
:1003A6008490125C93FFE55330E00590126D800354
:1003B60090126CE493FEEF4EFF8F4EE55325E0243A
:1003C6002DF8E675F00A84E5F090125C93F54FE59A
:1003D6005325E0242DF8E675F00A84F52C70047F89
:1003E600118002AF2CEF90125C93F55002048CE55D
:1003F6005325E0242EF8E675F00A84E5F090125CA9
:1004060093FFE55330E00590126C800390126DE483
:1004160093FEEF4EF54DE55325E0242EF8E675F0F4
:100426000A8490125C93FFE55330E00590126D80CC
:100436000390126CE493FEEF4EF54E3001089012D5
:100446006DE493FF8013E55325E0242DF8E675F05F
:100456000A84E5F090125C93FF8F4FE55325E02464
:100466002DF8E675F00A84F52C30010890126DE43B
:1004760093FF8010E52C70047F118002AF2CEF9063
:10048600125C93FF8F50052BE52B7002052A6464DE
:10049600452A700CF52AF52B300103C20122D20140
:0104A6002233
:1010E3007F007E201212B47DAA7F007E2012139E01
:1010F3007B007A00792D7D207C007F017E20020B0E
:0111030011DA
:07137800007E03DEFEDFF939
:01137F00224B
:0A1345007E027DF0DDFEDEFCDFF627
:01134F00227B
:0A1350007E147D72DDFEDEFCDFF688
:01135A002270
:0F131100007E087D9A7C7BDCFEDDFCDEFADFF1DE
:0113200022AA
:0913660080828486888A8C8E90B6
:10116200120919FF75F00A8475F00A84AEF0EEC414
:0E11720054F0FEEF75F00A84E5F04E0209819C
:1012DC00120919FFC4540F75F00AA4FEEF540F2E17
:0312EC0002098173
:0C132100C2B400C2B500C2B600D2B522B2
:0C132D00C2B5C2B4000000D2B4D2B62297
:060EEE008B178A18891918
:100EF400E4FFC2B600AB17AA18A919120919C31343
:100F040012098130B40EAB17AA18A9191209194491
:0B0F140080120981D2B6000FBF08D781
:010F1F0022AF
:091180008D82758300120932FF13
:10118900E4FEC2B600EF1392B4EFC313FFD2B60068
:041199000EBE08EE90
:01119D00222F
:10107C008F0C8D0DD2071211BB121321E50C90139E
:10108C006693FF121189AF0D12118912132DC2072D
:03109C000211BB83
:020F82008F15C9
:100F8400E4F516D2071211BB121321E5159013666E
:100F94009304FF1211897B007A007916120EEE1267
:090FA400132DC2071211BBAF1698
:010FAD002221
:02119E008F13AD
:1011A000E4F514120F828F14E513D3940650097BD3
:0A11B000007A0079141212DCAF146B
:0111BA002212
:10122A008D0BAC07ECD3940650097B007A00790B3E
:0A123A00121162AF04AD0B02107C2C
:0313A400020CAC8C
:0313A700020EB57E
:060EB5008B138A1489155D
:100EBB00D2071211BB1213217FBE121189E4FDABB5
:100ECB0013ED7E002515F9EE3514FA121162AB13F2
:100EDB00AA14A9151211800DBD07E47F8012118988
:030EEB0002132DC2
:060CAC008B138A14891568
:100CB200D2071211BB1213217FBF121189E4F5165C
:100CC200AB137E00E5152516F9EE3514FA120EEE79
:100CD200AB137E00E5152516F9EE3514FA1212DC77
:100CE2000516E516C3940740D77B007A00791612E1
:100CF2000EEE12132DAB13AA14A915120919547F63
:080D0200120981C2070211BBB6
:020FAE008F1E94
:100FB000E4F51FD2071211BB121321E51E25E02410
:100FC000C1FF1211897B007A00791F120EEE1213F5
:080FD0002DC2071211BBAF1F77
:010FD80022F6
:10109F008F7B8D7CD2071211BB121321E57B25E0CC
:1010AF0024C0FF121189AF7C12118912132DC207B0
:0310BF000211BB60
:060F52008B728A738974A2
:100F5800D2071211BB1213217FFF121189E4FDABD6
:100F680072ED7E002574F9EE3573FA120EEE0DBDA2
:0A0F78001FED12132DC2070211BB7A
:061003008B758A768977E7
:10100900D2071211BB1213217FFE121189E4FDAB25
:1010190075AA76A9771211800DBD1FF312132DC27F
:04102900070211BBEE
:1011BB001213210090136DE493FF12118930070471
:0C11CB007F0080027F8012118902132D2A
:10127300E4FD30040DA205330425E025E044A04538
:071283007DFD7F0802122A25
:07138000E4FF12119EEF33A0
:011387002243
:1011D700E4FF120F82AD07A208E433C4333333545C
:0C11E70080FFED547F4FFDE4FF02107C00
:030F200030072C6B
:100F2300E4F515E51590126F93F513744D2515F837
:100F3300E6F4F5147B007A0079137D02120E691230
:0C0F4300135B0515E515C3940440D8228B
:030F4F00D2832228
:02102D008F131F
:10102F00E4F516E51690126F93F514E513F4F51524
:10103F007B007A0079147D02120E6912135B05167C
:07104F00E516C3940440DC28
:011056002277
:060E69008B178A1889199D
:100E6F00EDD39400403FE4F51AED7E0024FFF582A8
:100E7F00EE34FFF583AB17AA18A919120932339272
:100E8F0082ED24FFFFEE34FFFEE92FF9EA3EFA125E
:100E9F00091925E0120981D280C280051AE51AB41A
:050EAF0008C71D80BB17
:010EB400221B
:0B135B00D283C281D281C281C28322F2
:081390001234567890ABCDEF4A
:100D0A00E4F561F51374622513F8E4F60513E513A7
:100D1A00B410F2C2AF53890F438920759850758D6C
:100D2A00F4858D8B438780D28ED29CD2AFE4F513A3
:100D3A00900000AF82AE83E4FCFD7B407A9CF9F818
:100D4A00D31209B5400B309805C29875E760A380A5
:0A0D5A00E20513E513B408D8D2AC8B
:010D6400226C
:10129F00E4FFE4FE7D0AAC051DEC70FA0EBEC8F447
:0412AF000FBFC8EEB7
:0112B3002218
:081388008F993099FDC29922F2
:101057008B788A79897AAB78AA79A97A1209196083
:1010670013057AE57A7002057914F9120919FF1246
:05107700138880E22255
:03002300020C3A92
:100C3A00C0E0C083C082C0D075D000C000C003C06D
:070C4A0004C005C006C0074D
:100C510030983EC29874622561F8A699AB61E5614E
:100C6100B4100575610080020561E512901390933F
:100C7100FF74622BF8E6B50718EB70047B0F800157
:100C81001BE512700812129F75E76080DD15128056
:060C9100D9309902C2995E
:100C9700D007D006D005D004D003D000D0D0D08262
:050CA700D083D0E03213
:0C133900C2AF53E71843E70143E78022EE
:09136F0053E77FE4F5E6D2AF225A
:1011F300AB07AA068AE3EBF5E453E5F843E5028D72
:01120300E208
:0B12040012133975E64675E6B90022AA
:10124400AD07AC068CE3EDF5E453E5F843E5011294
:08125400120412136FAFE22235
:1012B400EE54FEFEF5E3E4F5E453E5F843E50312EA
:0512C400120402136F8B
:06139E001211F302136FAF
:101104001211F3E4F5E253E5F843E50175E646759B
:10111400E6B90012136FE5E2B505037F00227F01F3
:0111240022A8
:0A0B11008C138D148B158A168917BA
:100B1B00D3E5149400E513940240037F0122EE54B5
:100B2B0001F5188F19E5192514FDE5183513FCD3BC
:100B3B00ED9400EC940240037F01228E188F191262
:100B4B001339E4FDFCC3ED9514EC9513504FE518E8
:100B5B00F5E3E519F5E4AB15AA16A9178D828C837D
:100B6B00120932FFF5E253E5F843E50275E64675E7
:100B7B00E6B900E4F5E253E5F843E50175E64675A1
:100B8B00E6B900E5E26F600612136F7F01220519CB
:100B9B00E519700205180DBD00010C80A812136F2A
:020BAB007F00C9
:010BAD002225
:080E15008D138B148A15891658
:100E1D008E178F18121339E4FDFCC3ED9513EC9466
:100E2D00005036E517F5E3E518F5E453E5F843E52D
:100E3D0001E4F5E275E64675E6B900AB14AA15A90D
:100E4D00168D828C83E5E21209930518E518700260
:0C0E5D0005170DBD00010C80C102136FD1
:03000000020BAE42
:0C0BAE00787FE4F6D8FD75817D020BF520
:10091900BB010689828A83E0225002E722BBFE02DC
:09092900E32289828A83E493220F
:10093200BB010CE58229F582E5833AF583E022507A
:1009420006E92582F8E622BBFE06E92582F8E222C4
:0D095200E58229F582E5833AF583E49322DE
:10095F00BB010989828A83F8E028F022500327F728
:10096F0022BBFE05F8E328F3228A838982F8E493F9
:02097F0028222C
:10098100BB010689828A83F0225002F722BBFE0155
:02099100F3224F
:10099300F8BB010DE58229F582E5833AF583E8F09A
:1009A300225006E92582C8F622BBFE05E92582C846
:0209B300F2222E
:1009B500EB9FF5F0EA9E42F0E99D42F0EC6480C8B9
:0609C50064809845F02259
:100BBA0002120FE493A3F8E493A34003F68001F230
:100BCA0008DFF48029E493A3F85407240CC8C3333C
:100BDA00C4540F4420C8834004F456800146F6DF0B
:100BEA00E4800B0102040810204080900DBEE47ED0
:100BFA00019360BCA3FF543F30E509541FFEE49300
:100C0A00A360010ECF54C025E060A840B8E493A3C6
:100C1A00FAE493A3F8E493A3C8C582C8CAC583CAF1
:100C2A00F0A3C8C582C8CAC583CADFE9DEE780BEA9
:010E140000DD
:00000001FF
