:07000300007E03DEFEDFF9C1
:01000A0022D3
:0A075C007E027DF0DDFEDEFCDFF61C
:010766002270
:0A0767007E147D72DDFEDEFCDFF67D
:010771002265
:0F071500007E087D9A7C7BDCFEDDFCDEFADFF1E6
:0107240022B2
:0907720080828486888A8C8E90B6
:1005F500120104FF75F00A8475F00A84AEF0EEC4AA
:0E06050054F0FEEF75F00A84E5F04E02016C31
:10070200120104FFC4540F75F00AA4FEEF540F2E19
:0307120002016C75
:0C074400C2B400C2B500C2B600D2B5229B
:0C075000C2B5C2B4000000D2B4D2B62280
:06040D008B2E8A2F8930BE
:10041300E4FFC2B600AB2EAA2FA930120104C31306
:1004230012016C30B40EAB2EAA2FA9301201044472
:0B0433008012016CD2B6000FBF08D78A
:01043E00229B
:090613008D8275830012011DFFA8
:10061C00E4FEC2B600EF1392B4EFC313FFD2B600E0
:04062C000EBE08EE08
:0106300022A7
:10056C008F3B8D3CD20312064E120744E53B90079D
:10057C007293FF12061CAF3C12061C120750C203EA
:03058C0002064E16
:02046F008F2CD0
:10047100E4F52DD20312064E120744E52C900772C3
:100481009304FF12061C7B007A00792D12040D12D1
:090491000750C20312064EAF2D04
:01049A00223F
:020631008F2A0E
:10063300E4F52B12046F8F2BE52AD3940650097B24
:0A064300007A00792B120702AF2B9A
:01064D00228A
:1006A1008D1FAC07ECD3940650097B007A00791FAB
:0A06B1001205F5AF04AD1F02056C41
:03078A00020287E1
:03078D000203D490
:0603D4008B2A8A2B892C04
:1003DA00D20312064E1207447FBE12061CE4FDAB7E
:1003EA002AED7E00252CF9EE352BFA1205F5AB2AFB
:1003FA00AA2BA92C1206130DBD07E47F8012061C36
:03040A0002075096
:060287008B318A3289333D
:10028D00D20312064E1207447FBF12061CE4F5344A
:10029D00AB317E00E5332534F9EE3532FA12040D1B
:1002AD00AB317E00E5332534F9EE3532FA12070213
:1002BD000534E534C3940740D77B007A00793412B6
:1002CD00040D120750AB31AA32A933120104547F29
:0802DD0012016CC20302064E7F
:0204C7008F3D67
:1004C900E4F53ED20312064E120744E53D25E02429
:1004D900C1FF12061C7B007A00793E12040D120737
:0804E90050C20312064EAF3EA3
:0104F10022E8
:10058F008F3F8D40D20312064E120744E53F25E000
:10059F0024C0FF12061CAF4012061C120750C203E4
:0305AF0002064EF3
:06043F008B358A36893777
:10044500D20312064E1207447FFF12061CE4FDABD1
:1004550035ED7E002537F9EE3536FA12040D0DBD62
:0A0465001FED120750C20302064EFD
:0604F2008B388A39893ABB
:1004F800D20312064E1207447FFE12061CE4FDAB1F
:1005080038AA39A93A1206130DBD1FF3120750C2B3
:040518000302064E86
:10064E0012074400900779E493FF12061C3003044E
:0C065E007F0080027F8012061C02075003
:1006D400E4FD30000DA201330425E025E044A045EB
:0706E40041FD7F080206A1A1
:07077B00E4FF120631EF3329
:010782002254
:10066A00E4FF12046FAD07A202E433C433333354F8
:0C067A0080FFED547F4FFDE4FF02056C93
:10049B00E4F525E5259005C593F52374122525F87C
:1004AB00E6F4F5247B007A0079237D0212033B12DC
:0B04BB0007830525E525C3940440D805
:0104C6002213
:02051C008F232B
:10051E00E4F526E5269005C593F524E523F4F525A7
:10052E007B007A0079247D0212033B120783052695
:07053E00E526C3940440DC34
:010545002293
:06033B008B278A288929A6
:10034100EDD394004041E4F52AED7E0024FFF582CF
:10035100EE34FFF583AB27AA28A92912011D339298
:1003610082ED24FFFFEE34FFFEE92FF9EA3EFA1297
:10037100010425E012016CC280D280C280052AE509
:070381002AB408C51D80B974
:010388002252
:07078300C281D281C2812274
:1005D400E4FF12016C20A0050412014A0F20A110AF
:1005E400740212014AEF70047E0280027E00AF069C
:0105F40022E4
:1005B2003F065B4F666D7D077F6F777C395E797191
:1005C20080004001020408010204080A1C130A0800
:0205D200031014
:1006EB00040E00010002010800010900010A0001CB
:0606FB000B00020C0000E0
:100725001207931207351206BB7F3212000380F6BB
:010793002243
:0F0735009005B2E493FF12051C120546020686DA
:1005460078237C007D007BFF7A0579CD7E007F07CE
:100556001200DEE4FF120631EF30E7097B007A0075
:05056600792312078D4E
:01056B00226D
:100686007516D8751EFAD2AFD2A95389F0438901DF
:0B06960085168C851E8AC28DD28C2236
:03000B000202E509
:1002E500C0E0C0F0C083C082C0D075D000C000C0DF
:0D02F50001C002C003C004C005C006C00760
:1003020085168C851E8A0508E508B4640375080005
:0E0312007B007A0079211205D48F0912020AAD
:10032000D007D006D005D004D003D002D001D00031
:0B033000D0D0D082D083D0F0D0E032DB
:1006BB00E4FF740E2FF8E69005B293FE74122FF838
:0906CB00A6060FBF04EC02049B1B
:02020A008F2241
:10020C00E50A14601114602124FE60462404706A0F
:10021C00E52260668049E5227003F50A22750A0220
:10022C00E4F50CF50D85220B22E5227007F50AAFDB
:10023C000B020389E522650B60028023050DE50D99
:10024C007002050C6496450C7030F50CF50D750AB2
:10025C000422E5227003F50A22E522650B60047581
:10026C000A0122050DE50D7002050C6414450C7095
:0A027C0009F50CF50DAF0B12079009
:010286002255
:10038900EF64017028050EE50E640A703DF50E054F
:100399000FE50F640A7033F50F0510E510640A7054
:1003A90029F5100511E511640A701F8015BF021A9D
:1003B9000510E510B40A13E4F5100511E511B40AA6
:0B03C90009E4F50EF50FF510F5112208
:03079000020389D8
:0300000002017E7C
:0C017E00787FE4F6D8FD7581410201C5D0
:10000E00E709F608DFFA8046E709F208DFFA803ED4
:10001E0088828C83E709F0A3DFFA8032E309F608C1
:10002E00DFFA8078E309F208DFFA807088828C8329
:10003E00E309F0A3DFFA806489828A83E0A3F608DD
:10004E00DFFA805889828A83E0A3F208DFFA804CB7
:10005E0080D280FA80C680D4806980F2803380108E
:10006E0080A680EA809A80A880DA80E280CA8033F7
:10007E0089828A83ECFAE493A3C8C582C8CCC5836F
:10008E00CCF0A3C8C582C8CCC583CCDFE9DEE7803F
:10009E000D89828A83E493A3F608DFF9ECFAA9F0BE
:1000AE00EDFB2289828A83ECFAE0A3C8C582C8CC14
:1000BE00C583CCF0A3C8C582C8CCC583CCDFEADE2D
:1000CE00E880DB89828A83E493A3F208DFF980CC8F
:1000DE0088F0EF60010E4E60C388F0ED2402B40488
:1000EE000050B9F582EB2402B4040050AF2323452F
:0600FE00822390005E73F6
:10010400BB010689828A83E0225002E722BBFE02F9
:09011400E32289828A83E493222C
:10011D00BB010CE58229F582E5833AF583E0225097
:10012D0006E92582F8E622BBFE06E92582F8E222E1
:0D013D00E58229F582E5833AF583E49322FB
:10014A00BB010989828A83F8E028F022500327F745
:10015A0022BBFE05F8E328F3228A838982F8E49316
:02016A00282249
:10016C00BB010689828A83F0225002F722BBFE0172
:02017C00F3226C
:10018A00020725E493A3F8E493A34003F68001F25F
:10019A0008DFF48029E493A3F85407240CC8C33376
:1001AA00C4540F4420C8834004F456800146F6DF45
:1001BA00E4800B01020408102040809006EBE47EE4
:1001CA00019360BCA3FF543F30E509541FFEE4933A
:1001DA00A360010ECF54C025E060A840B8E493A301
:1001EA00FAE493A3F8E493A3C8C582C8CAC583CA2C
:1001FA00F0A3C8C582C8CAC583CADFE9DEE780BEE4
:0107010000F7
:00000001FF
